{
  "address": "0xB4D2E00634eDFF8b7453700168C0f208D12628D6",
  "abi": [
    {
      "anonymous": false,
      "inputs": [
        {
          "indexed": true,
          "internalType": "address",
          "name": "user",
          "type": "address"
        },
        {
          "indexed": false,
          "internalType": "string",
          "name": "username",
          "type": "string"
        }
      ],
      "name": "NewUserRegistered",
      "type": "event"
    },
    {
      "inputs": [
        {
          "internalType": "string",
          "name": "_username",
          "type": "string"
        },
        {
          "internalType": "uint256",
          "name": "_age",
          "type": "uint256"
        }
      ],
      "name": "registerUser",
      "outputs": [],
      "stateMutability": "nonpayable",
      "type": "function"
    },
    {
      "inputs": [
        {
          "internalType": "address",
          "name": "",
          "type": "address"
        }
      ],
      "name": "users",
      "outputs": [
        {
          "internalType": "string",
          "name": "username",
          "type": "string"
        },
        {
          "internalType": "uint256",
          "name": "age",
          "type": "uint256"
        }
      ],
      "stateMutability": "view",
      "type": "function"
    }
  ],
  "transactionHash": "0x4edd677fa19842d26ae5c1fba9fba9d5238d5d80e90de2b4051b28f4781e0e35",
  "args": [],
  "numDeployments": 1,
  "solcInputHash": "4e38e28258ceacc3b2cb40d95b1a9c35",
  "bytecode": "0x608060405234801561001057600080fd5b50610474806100206000396000f3fe608060405234801561001057600080fd5b50600436106100365760003560e01c8063a87430ba1461003b578063d395100214610065575b600080fd5b61004e61004936600461017f565b61007a565b60405161005c9291906101f5565b60405180910390f35b61007861007336600461022d565b61011e565b005b600060208190529081526040902080548190610095906102e2565b80601f01602080910402602001604051908101604052809291908181526020018280546100c1906102e2565b801561010e5780601f106100e35761010080835404028352916020019161010e565b820191906000526020600020905b8154815290600101906020018083116100f157829003601f168201915b5050505050908060010154905082565b33600090815260208190526040902080610138848261036b565b506001810182905560405133907f1d2b3529f3edbf84c2fbf46a16fa81880bd170f19142f18267f113903389a6dc9061017290869061042b565b60405180910390a2505050565b60006020828403121561019157600080fd5b81356001600160a01b03811681146101a857600080fd5b9392505050565b6000815180845260005b818110156101d5576020818501810151868301820152016101b9565b506000602082860101526020601f19601f83011685010191505092915050565b60408152600061020860408301856101af565b90508260208301529392505050565b634e487b7160e01b600052604160045260246000fd5b6000806040838503121561024057600080fd5b823567ffffffffffffffff8082111561025857600080fd5b818501915085601f83011261026c57600080fd5b81358181111561027e5761027e610217565b604051601f8201601f19908116603f011681019083821181831017156102a6576102a6610217565b816040528281528860208487010111156102bf57600080fd5b826020860160208301376000602093820184015298969091013596505050505050565b600181811c908216806102f657607f821691505b60208210810361031657634e487b7160e01b600052602260045260246000fd5b50919050565b601f82111561036657600081815260208120601f850160051c810160208610156103435750805b601f850160051c820191505b818110156103625782815560010161034f565b5050505b505050565b815167ffffffffffffffff81111561038557610385610217565b6103998161039384546102e2565b8461031c565b602080601f8311600181146103ce57600084156103b65750858301515b600019600386901b1c1916600185901b178555610362565b600085815260208120601f198616915b828110156103fd578886015182559484019460019091019084016103de565b508582101561041b5787850151600019600388901b60f8161c191681555b5050505050600190811b01905550565b6020815260006101a860208301846101af56fea264697066735822122053a0ef60642b005d411d1efc0534744ed745ed2853f085a192635245c056872264736f6c63430008140033",
  "devdoc": {
    "kind": "dev",
    "methods": {},
    "version": 1
  },
  "userdoc": {
    "kind": "user",
    "methods": {},
    "version": 1
  },
  "storageLayout": {
    "storage": [
      {
        "astId": 17,
        "contract": "contracts/EventsExercise.sol:EventExample",
        "label": "users",
        "offset": 0,
        "slot": "0",
        "type": "t_mapping(t_address,t_struct(User)12_storage)"
      }
    ],
    "types": {
      "t_address": {
        "encoding": "inplace",
        "label": "address",
        "numberOfBytes": "20"
      },
      "t_mapping(t_address,t_struct(User)12_storage)": {
        "encoding": "mapping",
        "key": "t_address",
        "label": "mapping(address => struct EventExample.User)",
        "numberOfBytes": "32",
        "value": "t_struct(User)12_storage"
      },
      "t_string_storage": {
        "encoding": "bytes",
        "label": "string",
        "numberOfBytes": "32"
      },
      "t_struct(User)12_storage": {
        "encoding": "inplace",
        "label": "struct EventExample.User",
        "members": [
          {
            "astId": 9,
            "contract": "contracts/EventsExercise.sol:EventExample",
            "label": "username",
            "offset": 0,
            "slot": "0",
            "type": "t_string_storage"
          },
          {
            "astId": 11,
            "contract": "contracts/EventsExercise.sol:EventExample",
            "label": "age",
            "offset": 0,
            "slot": "1",
            "type": "t_uint256"
          }
        ],
        "numberOfBytes": "64"
      },
      "t_uint256": {
        "encoding": "inplace",
        "label": "uint256",
        "numberOfBytes": "32"
      }
    }
  }
}