{
  "address": "0x3Dc8F621b21c8b116C67a111Ac172140c3f4740f",
  "abi": [
    {
      "inputs": [],
      "stateMutability": "nonpayable",
      "type": "constructor"
    },
    {
      "anonymous": false,
      "inputs": [
        {
          "indexed": false,
          "internalType": "uint256",
          "name": "id",
          "type": "uint256"
        },
        {
          "indexed": false,
          "internalType": "address",
          "name": "author",
          "type": "address"
        },
        {
          "indexed": false,
          "internalType": "string",
          "name": "content",
          "type": "string"
        },
        {
          "indexed": false,
          "internalType": "uint256",
          "name": "timestamp",
          "type": "uint256"
        }
      ],
      "name": "TweetCreated",
      "type": "event"
    },
    {
      "anonymous": false,
      "inputs": [
        {
          "indexed": false,
          "internalType": "address",
          "name": "liker",
          "type": "address"
        },
        {
          "indexed": false,
          "internalType": "address",
          "name": "tweetAuthor",
          "type": "address"
        },
        {
          "indexed": false,
          "internalType": "uint256",
          "name": "tweetId",
          "type": "uint256"
        },
        {
          "indexed": false,
          "internalType": "uint256",
          "name": "newLikeCount",
          "type": "uint256"
        }
      ],
      "name": "TweetLiked",
      "type": "event"
    },
    {
      "anonymous": false,
      "inputs": [
        {
          "indexed": false,
          "internalType": "address",
          "name": "unliker",
          "type": "address"
        },
        {
          "indexed": false,
          "internalType": "address",
          "name": "tweetAuthor",
          "type": "address"
        },
        {
          "indexed": false,
          "internalType": "uint256",
          "name": "tweetId",
          "type": "uint256"
        },
        {
          "indexed": false,
          "internalType": "uint256",
          "name": "newLikeCount",
          "type": "uint256"
        }
      ],
      "name": "TweetUnliked",
      "type": "event"
    },
    {
      "inputs": [],
      "name": "MAX_TWEET_LENGTH",
      "outputs": [
        {
          "internalType": "uint16",
          "name": "",
          "type": "uint16"
        }
      ],
      "stateMutability": "view",
      "type": "function"
    },
    {
      "inputs": [
        {
          "internalType": "uint16",
          "name": "newTweetLength",
          "type": "uint16"
        }
      ],
      "name": "changeTweetLength",
      "outputs": [],
      "stateMutability": "nonpayable",
      "type": "function"
    },
    {
      "inputs": [
        {
          "internalType": "string",
          "name": "_tweet",
          "type": "string"
        }
      ],
      "name": "createTweet",
      "outputs": [],
      "stateMutability": "nonpayable",
      "type": "function"
    },
    {
      "inputs": [
        {
          "internalType": "address",
          "name": "_owner",
          "type": "address"
        }
      ],
      "name": "getAllTweets",
      "outputs": [
        {
          "components": [
            {
              "internalType": "uint256",
              "name": "id",
              "type": "uint256"
            },
            {
              "internalType": "address",
              "name": "author",
              "type": "address"
            },
            {
              "internalType": "string",
              "name": "content",
              "type": "string"
            },
            {
              "internalType": "uint256",
              "name": "timestamp",
              "type": "uint256"
            },
            {
              "internalType": "uint256",
              "name": "likes",
              "type": "uint256"
            }
          ],
          "internalType": "struct twitter.Tweet[]",
          "name": "",
          "type": "tuple[]"
        }
      ],
      "stateMutability": "view",
      "type": "function"
    },
    {
      "inputs": [
        {
          "internalType": "address",
          "name": "_owner",
          "type": "address"
        },
        {
          "internalType": "uint256",
          "name": "_i",
          "type": "uint256"
        }
      ],
      "name": "getTweet",
      "outputs": [
        {
          "components": [
            {
              "internalType": "uint256",
              "name": "id",
              "type": "uint256"
            },
            {
              "internalType": "address",
              "name": "author",
              "type": "address"
            },
            {
              "internalType": "string",
              "name": "content",
              "type": "string"
            },
            {
              "internalType": "uint256",
              "name": "timestamp",
              "type": "uint256"
            },
            {
              "internalType": "uint256",
              "name": "likes",
              "type": "uint256"
            }
          ],
          "internalType": "struct twitter.Tweet",
          "name": "",
          "type": "tuple"
        }
      ],
      "stateMutability": "view",
      "type": "function"
    },
    {
      "inputs": [
        {
          "internalType": "address",
          "name": "author",
          "type": "address"
        },
        {
          "internalType": "uint256",
          "name": "id",
          "type": "uint256"
        }
      ],
      "name": "likeTweet",
      "outputs": [],
      "stateMutability": "nonpayable",
      "type": "function"
    },
    {
      "inputs": [],
      "name": "owner",
      "outputs": [
        {
          "internalType": "address",
          "name": "",
          "type": "address"
        }
      ],
      "stateMutability": "view",
      "type": "function"
    },
    {
      "inputs": [
        {
          "internalType": "address",
          "name": "",
          "type": "address"
        },
        {
          "internalType": "uint256",
          "name": "",
          "type": "uint256"
        }
      ],
      "name": "tweets",
      "outputs": [
        {
          "internalType": "uint256",
          "name": "id",
          "type": "uint256"
        },
        {
          "internalType": "address",
          "name": "author",
          "type": "address"
        },
        {
          "internalType": "string",
          "name": "content",
          "type": "string"
        },
        {
          "internalType": "uint256",
          "name": "timestamp",
          "type": "uint256"
        },
        {
          "internalType": "uint256",
          "name": "likes",
          "type": "uint256"
        }
      ],
      "stateMutability": "view",
      "type": "function"
    },
    {
      "inputs": [
        {
          "internalType": "address",
          "name": "author",
          "type": "address"
        },
        {
          "internalType": "uint256",
          "name": "id",
          "type": "uint256"
        }
      ],
      "name": "unlikeTweet",
      "outputs": [],
      "stateMutability": "nonpayable",
      "type": "function"
    }
  ],
  "transactionHash": "0x01975aecbb1ea880982ab4842d4c75f1ae842adc6ec5037597ce0ce80a67b149",
  "args": [],
  "numDeployments": 2,
  "solcInputHash": "b7b3996e7b35fd70d0a9a523c1d51385",
  "bytecode": "0x60806040526000805461ffff191661011817905534801561001f57600080fd5b50600280546001600160a01b03191633179055610e89806100416000396000f3fe608060405234801561001057600080fd5b50600436106100935760003560e01c806358bfa4ab1161006657806358bfa4ab1461011a578063633782161461012d5780636eb10797146101405780637c9cd2bc146101615780638da5cb5b1461017457600080fd5b806305a1b4a914610098578063112f54e3146100c557806312e7ee1c146100e55780633d9b569f14610105575b600080fd5b6100ab6100a63660046109f2565b61019f565b6040516100bc959493929190610a62565b60405180910390f35b6100d86100d33660046109f2565b610281565b6040516100bc9190610af1565b6100f86100f3366004610b0b565b6103e6565b6040516100bc9190610b26565b6101186101133660046109f2565b610521565b005b610118610128366004610b88565b610711565b61011861013b3660046109f2565b61077b565b60005461014e9061ffff1681565b60405161ffff90911681526020016100bc565b61011861016f366004610bc2565b6108a5565b600254610187906001600160a01b031681565b6040516001600160a01b0390911681526020016100bc565b600160205281600052604060002081815481106101bb57600080fd5b60009182526020909120600590910201805460018201546002830180549295506001600160a01b039091169350906101f290610c73565b80601f016020809104026020016040519081016040528092919081815260200182805461021e90610c73565b801561026b5780601f106102405761010080835404028352916020019161026b565b820191906000526020600020905b81548152906001019060200180831161024e57829003601f168201915b5050505050908060030154908060040154905085565b6102bc6040518060a001604052806000815260200160006001600160a01b031681526020016060815260200160008152602001600081525090565b6001600160a01b03831660009081526001602052604090208054839081106102e6576102e6610cad565b90600052602060002090600502016040518060a0016040529081600082015481526020016001820160009054906101000a90046001600160a01b03166001600160a01b03166001600160a01b0316815260200160028201805461034890610c73565b80601f016020809104026020016040519081016040528092919081815260200182805461037490610c73565b80156103c15780601f10610396576101008083540402835291602001916103c1565b820191906000526020600020905b8154815290600101906020018083116103a457829003601f168201915b5050505050815260200160038201548152602001600482015481525050905092915050565b6001600160a01b0381166000908152600160209081526040808320805482518185028101850190935280835260609492939192909184015b828210156105165760008481526020908190206040805160a081018252600586029092018054835260018101546001600160a01b0316938301939093526002830180549293929184019161047190610c73565b80601f016020809104026020016040519081016040528092919081815260200182805461049d90610c73565b80156104ea5780601f106104bf576101008083540402835291602001916104ea565b820191906000526020600020905b8154815290600101906020018083116104cd57829003601f168201915b50505050508152602001600382015481526020016004820154815250508152602001906001019061041e565b505050509050919050565b6001600160a01b038216600090815260016020526040902080548291908290811061054e5761054e610cad565b906000526020600020906005020160000154146105a95760405162461bcd60e51b81526020600482015260146024820152731515d15155081113d154c81393d50811561254d560621b60448201526064015b60405180910390fd5b6001600160a01b03821660009081526001602052604081208054839081106105d3576105d3610cad565b906000526020600020906005020160040154116106205760405162461bcd60e51b815260206004820152600b60248201526a04c494b45532041524520360ac1b60448201526064016105a0565b6001600160a01b038216600090815260016020526040902080548290811061064a5761064a610cad565b60009182526020822060046005909202010180549161066883610cd9565b91905055507f762c2616349603ac16eba0de8e6141b79129a07ab63bd99e0a80b3a47171694333838360016000876001600160a01b03166001600160a01b0316815260200190815260200160002085815481106106c7576106c7610cad565b600091825260209182902060046005909202010154604080516001600160a01b03968716815295909416918501919091529183015260608201526080015b60405180910390a15050565b6002546001600160a01b031633146107635760405162461bcd60e51b81526020600482015260156024820152742ca7aa9020a922902727aa102a24229027aba722a960591b60448201526064016105a0565b6000805461ffff191661ffff92909216919091179055565b6001600160a01b03821660009081526001602052604090208054829190829081106107a8576107a8610cad565b906000526020600020906005020160000154146107fe5760405162461bcd60e51b81526020600482015260146024820152731515d15155081113d154c81393d50811561254d560621b60448201526064016105a0565b6001600160a01b038216600090815260016020526040902080548290811061082857610828610cad565b60009182526020822060046005909202010180549161084683610cf0565b91905055507fe8a76fc0f16d11a00d1e93b689b63d76cf60af914dd3d915375dc41d01a0c3c833838360016000876001600160a01b03166001600160a01b0316815260200190815260200160002085815481106106c7576106c7610cad565b600054815161ffff90911610156108f35760405162461bcd60e51b8152602060048201526012602482015271547765657420697320746f6f206c6f6e672160701b60448201526064016105a0565b6040805160a08101825233600081815260016020818152858320805480875282870195865296860188815242606088015260808701859052838352878401825590845292208451600590960201948555915191840180546001600160a01b0319166001600160a01b03909316929092179091555190918291600282019061097a9082610d58565b50606082015181600301556080820151816004015550507f16fd3c13e9d46923e0a8bce11c7b473ec508a72e6c96cd2404b29ce972afc29e81600001518260200151836040015184606001516040516107059493929190610e18565b80356001600160a01b03811681146109ed57600080fd5b919050565b60008060408385031215610a0557600080fd5b610a0e836109d6565b946020939093013593505050565b6000815180845260005b81811015610a4257602081850181015186830182015201610a26565b506000602082860101526020601f19601f83011685010191505092915050565b8581526001600160a01b038516602082015260a060408201819052600090610a8c90830186610a1c565b606083019490945250608001529392505050565b8051825260018060a01b0360208201511660208301526000604082015160a06040850152610ad160a0850182610a1c565b905060608301516060850152608083015160808501528091505092915050565b602081526000610b046020830184610aa0565b9392505050565b600060208284031215610b1d57600080fd5b610b04826109d6565b6000602080830181845280855180835260408601915060408160051b870101925083870160005b82811015610b7b57603f19888603018452610b69858351610aa0565b94509285019290850190600101610b4d565b5092979650505050505050565b600060208284031215610b9a57600080fd5b813561ffff81168114610b0457600080fd5b634e487b7160e01b600052604160045260246000fd5b600060208284031215610bd457600080fd5b813567ffffffffffffffff80821115610bec57600080fd5b818401915084601f830112610c0057600080fd5b813581811115610c1257610c12610bac565b604051601f8201601f19908116603f01168101908382118183101715610c3a57610c3a610bac565b81604052828152876020848701011115610c5357600080fd5b826020860160208301376000928101602001929092525095945050505050565b600181811c90821680610c8757607f821691505b602082108103610ca757634e487b7160e01b600052602260045260246000fd5b50919050565b634e487b7160e01b600052603260045260246000fd5b634e487b7160e01b600052601160045260246000fd5b600081610ce857610ce8610cc3565b506000190190565b600060018201610d0257610d02610cc3565b5060010190565b601f821115610d5357600081815260208120601f850160051c81016020861015610d305750805b601f850160051c820191505b81811015610d4f57828155600101610d3c565b5050505b505050565b815167ffffffffffffffff811115610d7257610d72610bac565b610d8681610d808454610c73565b84610d09565b602080601f831160018114610dbb5760008415610da35750858301515b600019600386901b1c1916600185901b178555610d4f565b600085815260208120601f198616915b82811015610dea57888601518255948401946001909101908401610dcb565b5085821015610e085787850151600019600388901b60f8161c191681555b5050505050600190811b01905550565b8481526001600160a01b0384166020820152608060408201819052600090610e4290830185610a1c565b90508260608301529594505050505056fea2646970667358221220847b5a4d5b6c231052b135d24a4f16e5cd8be755b31354ec2e8aa7d7fb612d8f64736f6c63430008140033",
  "devdoc": {
    "kind": "dev",
    "methods": {},
    "version": 1
  },
  "userdoc": {
    "kind": "user",
    "methods": {},
    "version": 1
  },
  "storageLayout": {
    "storage": [
      {
        "astId": 4,
        "contract": "contracts/twitter.sol:twitter",
        "label": "MAX_TWEET_LENGTH",
        "offset": 0,
        "slot": "0",
        "type": "t_uint16"
      },
      {
        "astId": 21,
        "contract": "contracts/twitter.sol:twitter",
        "label": "tweets",
        "offset": 0,
        "slot": "1",
        "type": "t_mapping(t_address,t_array(t_struct(Tweet)15_storage)dyn_storage)"
      },
      {
        "astId": 23,
        "contract": "contracts/twitter.sol:twitter",
        "label": "owner",
        "offset": 0,
        "slot": "2",
        "type": "t_address"
      }
    ],
    "types": {
      "t_address": {
        "encoding": "inplace",
        "label": "address",
        "numberOfBytes": "20"
      },
      "t_array(t_struct(Tweet)15_storage)dyn_storage": {
        "base": "t_struct(Tweet)15_storage",
        "encoding": "dynamic_array",
        "label": "struct twitter.Tweet[]",
        "numberOfBytes": "32"
      },
      "t_mapping(t_address,t_array(t_struct(Tweet)15_storage)dyn_storage)": {
        "encoding": "mapping",
        "key": "t_address",
        "label": "mapping(address => struct twitter.Tweet[])",
        "numberOfBytes": "32",
        "value": "t_array(t_struct(Tweet)15_storage)dyn_storage"
      },
      "t_string_storage": {
        "encoding": "bytes",
        "label": "string",
        "numberOfBytes": "32"
      },
      "t_struct(Tweet)15_storage": {
        "encoding": "inplace",
        "label": "struct twitter.Tweet",
        "members": [
          {
            "astId": 6,
            "contract": "contracts/twitter.sol:twitter",
            "label": "id",
            "offset": 0,
            "slot": "0",
            "type": "t_uint256"
          },
          {
            "astId": 8,
            "contract": "contracts/twitter.sol:twitter",
            "label": "author",
            "offset": 0,
            "slot": "1",
            "type": "t_address"
          },
          {
            "astId": 10,
            "contract": "contracts/twitter.sol:twitter",
            "label": "content",
            "offset": 0,
            "slot": "2",
            "type": "t_string_storage"
          },
          {
            "astId": 12,
            "contract": "contracts/twitter.sol:twitter",
            "label": "timestamp",
            "offset": 0,
            "slot": "3",
            "type": "t_uint256"
          },
          {
            "astId": 14,
            "contract": "contracts/twitter.sol:twitter",
            "label": "likes",
            "offset": 0,
            "slot": "4",
            "type": "t_uint256"
          }
        ],
        "numberOfBytes": "160"
      },
      "t_uint16": {
        "encoding": "inplace",
        "label": "uint16",
        "numberOfBytes": "2"
      },
      "t_uint256": {
        "encoding": "inplace",
        "label": "uint256",
        "numberOfBytes": "32"
      }
    }
  }
}