{
  "address": "0x8273C686c77025949173DfF4F5Aa1c9C13dE69e0",
  "abi": [
    {
      "inputs": [],
      "stateMutability": "nonpayable",
      "type": "constructor"
    },
    {
      "inputs": [],
      "name": "MAX_TWEET_LENGTH",
      "outputs": [
        {
          "internalType": "uint16",
          "name": "",
          "type": "uint16"
        }
      ],
      "stateMutability": "view",
      "type": "function"
    },
    {
      "inputs": [
        {
          "internalType": "uint16",
          "name": "newTweetLength",
          "type": "uint16"
        }
      ],
      "name": "changeTweetLength",
      "outputs": [],
      "stateMutability": "nonpayable",
      "type": "function"
    },
    {
      "inputs": [
        {
          "internalType": "string",
          "name": "_tweet",
          "type": "string"
        }
      ],
      "name": "createTweet",
      "outputs": [],
      "stateMutability": "nonpayable",
      "type": "function"
    },
    {
      "inputs": [
        {
          "internalType": "address",
          "name": "_owner",
          "type": "address"
        }
      ],
      "name": "getAllTweets",
      "outputs": [
        {
          "components": [
            {
              "internalType": "uint256",
              "name": "id",
              "type": "uint256"
            },
            {
              "internalType": "address",
              "name": "author",
              "type": "address"
            },
            {
              "internalType": "string",
              "name": "content",
              "type": "string"
            },
            {
              "internalType": "uint256",
              "name": "timestamp",
              "type": "uint256"
            },
            {
              "internalType": "uint256",
              "name": "likes",
              "type": "uint256"
            }
          ],
          "internalType": "struct twitter.Tweet[]",
          "name": "",
          "type": "tuple[]"
        }
      ],
      "stateMutability": "view",
      "type": "function"
    },
    {
      "inputs": [
        {
          "internalType": "address",
          "name": "_owner",
          "type": "address"
        },
        {
          "internalType": "uint256",
          "name": "_i",
          "type": "uint256"
        }
      ],
      "name": "getTweet",
      "outputs": [
        {
          "components": [
            {
              "internalType": "uint256",
              "name": "id",
              "type": "uint256"
            },
            {
              "internalType": "address",
              "name": "author",
              "type": "address"
            },
            {
              "internalType": "string",
              "name": "content",
              "type": "string"
            },
            {
              "internalType": "uint256",
              "name": "timestamp",
              "type": "uint256"
            },
            {
              "internalType": "uint256",
              "name": "likes",
              "type": "uint256"
            }
          ],
          "internalType": "struct twitter.Tweet",
          "name": "",
          "type": "tuple"
        }
      ],
      "stateMutability": "view",
      "type": "function"
    },
    {
      "inputs": [
        {
          "internalType": "address",
          "name": "author",
          "type": "address"
        },
        {
          "internalType": "uint256",
          "name": "id",
          "type": "uint256"
        }
      ],
      "name": "likeTweet",
      "outputs": [],
      "stateMutability": "nonpayable",
      "type": "function"
    },
    {
      "inputs": [],
      "name": "owner",
      "outputs": [
        {
          "internalType": "address",
          "name": "",
          "type": "address"
        }
      ],
      "stateMutability": "view",
      "type": "function"
    },
    {
      "inputs": [
        {
          "internalType": "address",
          "name": "",
          "type": "address"
        },
        {
          "internalType": "uint256",
          "name": "",
          "type": "uint256"
        }
      ],
      "name": "tweets",
      "outputs": [
        {
          "internalType": "uint256",
          "name": "id",
          "type": "uint256"
        },
        {
          "internalType": "address",
          "name": "author",
          "type": "address"
        },
        {
          "internalType": "string",
          "name": "content",
          "type": "string"
        },
        {
          "internalType": "uint256",
          "name": "timestamp",
          "type": "uint256"
        },
        {
          "internalType": "uint256",
          "name": "likes",
          "type": "uint256"
        }
      ],
      "stateMutability": "view",
      "type": "function"
    },
    {
      "inputs": [
        {
          "internalType": "address",
          "name": "author",
          "type": "address"
        },
        {
          "internalType": "uint256",
          "name": "id",
          "type": "uint256"
        }
      ],
      "name": "unlikeTweet",
      "outputs": [],
      "stateMutability": "nonpayable",
      "type": "function"
    }
  ],
  "transactionHash": "0x870b4ef73b72610d5905bf7a98fccb42fd2eba1b52f0a99349d96433f834e0db",
  "args": [],
  "numDeployments": 1,
  "solcInputHash": "255036f81584106ccdd6378c1cc4d410",
  "bytecode": "0x60806040526000805461ffff191661011817905534801561001f57600080fd5b50600280546001600160a01b03191633179055610d0e806100416000396000f3fe608060405234801561001057600080fd5b50600436106100935760003560e01c806358bfa4ab1161006657806358bfa4ab1461011a578063633782161461012d5780636eb10797146101405780637c9cd2bc146101615780638da5cb5b1461017457600080fd5b806305a1b4a914610098578063112f54e3146100c557806312e7ee1c146100e55780633d9b569f14610105575b600080fd5b6100ab6100a63660046108b2565b61019f565b6040516100bc959493929190610922565b60405180910390f35b6100d86100d33660046108b2565b610281565b6040516100bc91906109b1565b6100f86100f33660046109cb565b6103e6565b6040516100bc91906109e6565b6101186101133660046108b2565b610521565b005b610118610128366004610a48565b610671565b61011861013b3660046108b2565b6106db565b60005461014e9061ffff1681565b60405161ffff90911681526020016100bc565b61011861016f366004610a82565b6107a6565b600254610187906001600160a01b031681565b6040516001600160a01b0390911681526020016100bc565b600160205281600052604060002081815481106101bb57600080fd5b60009182526020909120600590910201805460018201546002830180549295506001600160a01b039091169350906101f290610b33565b80601f016020809104026020016040519081016040528092919081815260200182805461021e90610b33565b801561026b5780601f106102405761010080835404028352916020019161026b565b820191906000526020600020905b81548152906001019060200180831161024e57829003601f168201915b5050505050908060030154908060040154905085565b6102bc6040518060a001604052806000815260200160006001600160a01b031681526020016060815260200160008152602001600081525090565b6001600160a01b03831660009081526001602052604090208054839081106102e6576102e6610b6d565b90600052602060002090600502016040518060a0016040529081600082015481526020016001820160009054906101000a90046001600160a01b03166001600160a01b03166001600160a01b0316815260200160028201805461034890610b33565b80601f016020809104026020016040519081016040528092919081815260200182805461037490610b33565b80156103c15780601f10610396576101008083540402835291602001916103c1565b820191906000526020600020905b8154815290600101906020018083116103a457829003601f168201915b5050505050815260200160038201548152602001600482015481525050905092915050565b6001600160a01b0381166000908152600160209081526040808320805482518185028101850190935280835260609492939192909184015b828210156105165760008481526020908190206040805160a081018252600586029092018054835260018101546001600160a01b0316938301939093526002830180549293929184019161047190610b33565b80601f016020809104026020016040519081016040528092919081815260200182805461049d90610b33565b80156104ea5780601f106104bf576101008083540402835291602001916104ea565b820191906000526020600020905b8154815290600101906020018083116104cd57829003601f168201915b50505050508152602001600382015481526020016004820154815250508152602001906001019061041e565b505050509050919050565b6001600160a01b038216600090815260016020526040902080548291908290811061054e5761054e610b6d565b906000526020600020906005020160000154146105a95760405162461bcd60e51b81526020600482015260146024820152731515d15155081113d154c81393d50811561254d560621b60448201526064015b60405180910390fd5b6001600160a01b03821660009081526001602052604081208054839081106105d3576105d3610b6d565b906000526020600020906005020160040154116106205760405162461bcd60e51b815260206004820152600b60248201526a04c494b45532041524520360ac1b60448201526064016105a0565b6001600160a01b038216600090815260016020526040902080548290811061064a5761064a610b6d565b60009182526020822060046005909202010180549161066883610b99565b91905055505050565b6002546001600160a01b031633146106c35760405162461bcd60e51b81526020600482015260156024820152742ca7aa9020a922902727aa102a24229027aba722a960591b60448201526064016105a0565b6000805461ffff191661ffff92909216919091179055565b6001600160a01b038216600090815260016020526040902080548291908290811061070857610708610b6d565b9060005260206000209060050201600001541461075e5760405162461bcd60e51b81526020600482015260146024820152731515d15155081113d154c81393d50811561254d560621b60448201526064016105a0565b6001600160a01b038216600090815260016020526040902080548290811061078857610788610b6d565b60009182526020822060046005909202010180549161066883610bb0565b600054815161ffff90911610156107f45760405162461bcd60e51b8152602060048201526012602482015271547765657420697320746f6f206c6f6e672160701b60448201526064016105a0565b6040805160a08101825233600081815260016020818152858320805480875282870195865296860188815242606088015260808701859052838352878401825590845292208451600590960201948555915191840180546001600160a01b0319166001600160a01b03909316929092179091555190918291600282019061087b9082610c18565b50606082015181600301556080820151816004015550505050565b80356001600160a01b03811681146108ad57600080fd5b919050565b600080604083850312156108c557600080fd5b6108ce83610896565b946020939093013593505050565b6000815180845260005b81811015610902576020818501810151868301820152016108e6565b506000602082860101526020601f19601f83011685010191505092915050565b8581526001600160a01b038516602082015260a06040820181905260009061094c908301866108dc565b606083019490945250608001529392505050565b8051825260018060a01b0360208201511660208301526000604082015160a0604085015261099160a08501826108dc565b905060608301516060850152608083015160808501528091505092915050565b6020815260006109c46020830184610960565b9392505050565b6000602082840312156109dd57600080fd5b6109c482610896565b6000602080830181845280855180835260408601915060408160051b870101925083870160005b82811015610a3b57603f19888603018452610a29858351610960565b94509285019290850190600101610a0d565b5092979650505050505050565b600060208284031215610a5a57600080fd5b813561ffff811681146109c457600080fd5b634e487b7160e01b600052604160045260246000fd5b600060208284031215610a9457600080fd5b813567ffffffffffffffff80821115610aac57600080fd5b818401915084601f830112610ac057600080fd5b813581811115610ad257610ad2610a6c565b604051601f8201601f19908116603f01168101908382118183101715610afa57610afa610a6c565b81604052828152876020848701011115610b1357600080fd5b826020860160208301376000928101602001929092525095945050505050565b600181811c90821680610b4757607f821691505b602082108103610b6757634e487b7160e01b600052602260045260246000fd5b50919050565b634e487b7160e01b600052603260045260246000fd5b634e487b7160e01b600052601160045260246000fd5b600081610ba857610ba8610b83565b506000190190565b600060018201610bc257610bc2610b83565b5060010190565b601f821115610c1357600081815260208120601f850160051c81016020861015610bf05750805b601f850160051c820191505b81811015610c0f57828155600101610bfc565b5050505b505050565b815167ffffffffffffffff811115610c3257610c32610a6c565b610c4681610c408454610b33565b84610bc9565b602080601f831160018114610c7b5760008415610c635750858301515b600019600386901b1c1916600185901b178555610c0f565b600085815260208120601f198616915b82811015610caa57888601518255948401946001909101908401610c8b565b5085821015610cc85787850151600019600388901b60f8161c191681555b5050505050600190811b0190555056fea2646970667358221220aac3a15c75def8fdd45a04b42db4318cb445a2c5495c624a8da910afb3e6000464736f6c63430008140033",
  "devdoc": {
    "kind": "dev",
    "methods": {},
    "version": 1
  },
  "userdoc": {
    "kind": "user",
    "methods": {},
    "version": 1
  },
  "storageLayout": {
    "storage": [
      {
        "astId": 4,
        "contract": "contracts/twitter.sol:twitter",
        "label": "MAX_TWEET_LENGTH",
        "offset": 0,
        "slot": "0",
        "type": "t_uint16"
      },
      {
        "astId": 21,
        "contract": "contracts/twitter.sol:twitter",
        "label": "tweets",
        "offset": 0,
        "slot": "1",
        "type": "t_mapping(t_address,t_array(t_struct(Tweet)15_storage)dyn_storage)"
      },
      {
        "astId": 23,
        "contract": "contracts/twitter.sol:twitter",
        "label": "owner",
        "offset": 0,
        "slot": "2",
        "type": "t_address"
      }
    ],
    "types": {
      "t_address": {
        "encoding": "inplace",
        "label": "address",
        "numberOfBytes": "20"
      },
      "t_array(t_struct(Tweet)15_storage)dyn_storage": {
        "base": "t_struct(Tweet)15_storage",
        "encoding": "dynamic_array",
        "label": "struct twitter.Tweet[]",
        "numberOfBytes": "32"
      },
      "t_mapping(t_address,t_array(t_struct(Tweet)15_storage)dyn_storage)": {
        "encoding": "mapping",
        "key": "t_address",
        "label": "mapping(address => struct twitter.Tweet[])",
        "numberOfBytes": "32",
        "value": "t_array(t_struct(Tweet)15_storage)dyn_storage"
      },
      "t_string_storage": {
        "encoding": "bytes",
        "label": "string",
        "numberOfBytes": "32"
      },
      "t_struct(Tweet)15_storage": {
        "encoding": "inplace",
        "label": "struct twitter.Tweet",
        "members": [
          {
            "astId": 6,
            "contract": "contracts/twitter.sol:twitter",
            "label": "id",
            "offset": 0,
            "slot": "0",
            "type": "t_uint256"
          },
          {
            "astId": 8,
            "contract": "contracts/twitter.sol:twitter",
            "label": "author",
            "offset": 0,
            "slot": "1",
            "type": "t_address"
          },
          {
            "astId": 10,
            "contract": "contracts/twitter.sol:twitter",
            "label": "content",
            "offset": 0,
            "slot": "2",
            "type": "t_string_storage"
          },
          {
            "astId": 12,
            "contract": "contracts/twitter.sol:twitter",
            "label": "timestamp",
            "offset": 0,
            "slot": "3",
            "type": "t_uint256"
          },
          {
            "astId": 14,
            "contract": "contracts/twitter.sol:twitter",
            "label": "likes",
            "offset": 0,
            "slot": "4",
            "type": "t_uint256"
          }
        ],
        "numberOfBytes": "160"
      },
      "t_uint16": {
        "encoding": "inplace",
        "label": "uint16",
        "numberOfBytes": "2"
      },
      "t_uint256": {
        "encoding": "inplace",
        "label": "uint256",
        "numberOfBytes": "32"
      }
    }
  }
}